{
  "contractName": "SimpleTest",
  "abi": [
    {
      "inputs": [],
      "stateMutability": "nonpayable",
      "type": "constructor"
    },
    {
      "inputs": [],
      "name": "owner",
      "outputs": [
        {
          "internalType": "address",
          "name": "",
          "type": "address"
        }
      ],
      "stateMutability": "view",
      "type": "function"
    },
    {
      "inputs": [
        {
          "internalType": "uint256",
          "name": "x",
          "type": "uint256"
        },
        {
          "internalType": "uint256",
          "name": "y",
          "type": "uint256"
        }
      ],
      "name": "setValue",
      "outputs": [],
      "stateMutability": "nonpayable",
      "type": "function"
    },
    {
      "inputs": [],
      "name": "getValue",
      "outputs": [
        {
          "internalType": "uint256",
          "name": "",
          "type": "uint256"
        }
      ],
      "stateMutability": "view",
      "type": "function"
    }
  ],
  "bytecode": "0x608060405234801561001057600080fd5b5033600260006101000a81548173ffffffffffffffffffffffffffffffffffffffff021916908373ffffffffffffffffffffffffffffffffffffffff160217905550610216806100616000396000f3fe608060405234801561001057600080fd5b50600436106100415760003560e01c806320965255146100465780637b8d56e3146100645780638da5cb5b14610080575b600080fd5b61004e61009e565b60405161005b91906100f8565b60405180910390f35b61007e60048036038101906100799190610144565b6100a7565b005b6100886100b9565b60405161009591906101c5565b60405180910390f35b60008054905090565b81600081905550806001819055505050565b600260009054906101000a900473ffffffffffffffffffffffffffffffffffffffff1681565b6000819050919050565b6100f2816100df565b82525050565b600060208201905061010d60008301846100e9565b92915050565b600080fd5b610121816100df565b811461012c57600080fd5b50565b60008135905061013e81610118565b92915050565b6000806040838503121561015b5761015a610113565b5b60006101698582860161012f565b925050602061017a8582860161012f565b9150509250929050565b600073ffffffffffffffffffffffffffffffffffffffff82169050919050565b60006101af82610184565b9050919050565b6101bf816101a4565b82525050565b60006020820190506101da60008301846101b6565b9291505056fea2646970667358221220eb7eb8585966da2fa55f0d36359685a0eb82e5e5433996164a46d606159cbe0b64736f6c634300080e0033",
  "immutableReferences": {},
  "source": "// SPDX-License-Identifier: MIT\r\npragma solidity >=0.4.22 <0.9.0;\r\n\r\ncontract SimpleTest {\r\n    uint256 value1;\r\n    uint256 value2;\r\n\r\n    address public owner;\r\n\r\n    constructor() {\r\n        owner = msg.sender;\r\n    }\r\n\r\n    function setValue(uint256 x, uint256 y) public {\r\n        value1 = x;\r\n        value2 = y;\r\n    }\r\n\r\n    function getValue() public view returns (uint256) {\r\n        return value1;\r\n    }\r\n}\r\n",
  "sourcePath": "C:\\Users\\dog10\\OneDrive\\바탕 화면\\git\\organize\\220602\\contracts\\simpleTest.sol",
  "compiler": {
    "name": "solc",
    "version": "0.8.14+commit.80d49f37.Emscripten.clang"
  },
  "schemaVersion": "3.4.7",
  "updatedAt": "2022-06-02T08:20:19.798Z",
  "devdoc": {
    "kind": "dev",
    "methods": {},
    "version": 1
  },
  "userdoc": {
    "kind": "user",
    "methods": {},
    "version": 1
  }
}